:100000000C9446000C9465000C9465000C946500FB
:100010000C9465000C9465000C9465000C946500CC
:100020000C9465000C9465000C9465000C946500BC
:100030000C9465000C94DE000C9465000C94650033
:100040000C9465000C9465000C9465000C9465009C
:100050000C9465000C9465000C9465000C9465008C
:100060000C9465000C9465000C9465000C9465007C
:100070000C9465000C9465000C9465000C9465006C
:100080000C9465000C9465000C94650011241FBE4F
:10009000CFEFD0E4DEBFCDBF11E0A0E0B1E0EAEFEA
:1000A000F9E000E00BBF02C007900D92A637B10740
:1000B000D9F721E0A6E7B1E001C01D92A538B2074B
:1000C000E1F70E943D020C94FB040C940000CF93D6
:1000D000DF9300D01F92CDB7DEB789837B836A831D
:1000E00089818A3031F48A819B81BC018DE00E9434
:1000F000670080EC90E0FC018081882F90E08072A6
:100100009927892BB1F386EC90E02981FC012083AB
:1001100080E090E00F900F900F90DF91CF910895C5
:10012000CF93DF93CDB7DEB781E890E02BE0FC0101
:10013000208388E890E02DE730E0FC0131832083C4
:100140008FE690E022E0FC01208384E890E0FC014F
:100150001182108280910E0190910F01A0911001E7
:10016000B09111018093770190937801A093790168
:10017000B0937A018FE590E02FE530E0F90120811E
:100180002068FC0120830000DF91CF910895CF9378
:10019000DF93CDB7DEB781E890E0FC01108200006C
:1001A000DF91CF910895CF93DF93CDB7DEB781E094
:1001B000809376010000DF91CF9108951F920F92F6
:1001C00000905F000F92112400905B000F922F931C
:1001D0003F934F935F936F937F938F939F93AF93CF
:1001E000BF93EF93FF93CF93DF93CDB7DEB78091AB
:1001F000770190917801A0917901B0917A010197EE
:10020000A109B1098093770190937801A0937901B6
:10021000B0937A018091770190917801A091790152
:10022000B0917A01892B8A2B8B2B91F40E94D300F9
:1002300080910E0190910F01A0911001B0911101D8
:100240008093770190937801A0937901B0937A011C
:100250000000DF91CF91FF91EF91BF91AF919F91FE
:100260008F917F916F915F914F913F912F910F905F
:1002700000925B000F9000925F000F901F90189506
:10028000CF93DF9300D000D0CDB7DEB769837A83F8
:100290008B839C8389819A81AB81BC8180930E0181
:1002A00090930F01A0931001B093110180910E0162
:1002B00090910F01A0911001B091110180937701ED
:1002C00090937801A0937901B0937A0100000F9088
:1002D0000F900F900F90DF91CF9108950F931F9380
:1002E000CF93DF9300D000D0CDB7DEB769837A8398
:1002F0008B839C8380917D0190917E01A0917F01F1
:10030000B09180019C01AD0169817A818B819C81D2
:100310000E946703882309F477C020E030E0A90138
:1003200069817A818B819C810E946703882351F4C3
:1003300081E990E021E930E0F90120812870FC0199
:10034000208309C081E990E021E930E0F9012081B2
:100350002360FC01208328E539E344E75FE36981FA
:100360007A818B819C810E946703882344F488E909
:1003700090E02FEF3FEFFC013183208334C020E079
:1003800034E244EF56E469817A818B819C810E943A
:100390008904181634F488E990E0FC011182108277
:1003A00022C008E910E020E030E040E053E4698139
:1003B0007A818B819C810E948E04DC01CB019C019F
:1003C000AD0160E074E284EF9AE40E946C03DC010A
:1003D000CB01BC01CD010E94DE03DC01CB01019702
:1003E000F8019183808384E990E0FC0111821082FE
:1003F00089819A81AB81BC8180937D0190937E013C
:10040000A0937F01B093800100000F900F900F9098
:100410000F90DF91CF911F910F910895CF93DF93AC
:10042000CDB7DEB780E990E020E4FC01208381E9CC
:1004300090E02BE0FC01208360E070E0CB010E94A3
:100440006E010000DF91CF910895CF93DF93CDB778
:10045000DEB780E990E0FC01108281E990E0FC01C8
:1004600010820000DF91CF910895CF93DF93CDB735
:10047000DEB70000DF91CF910895CF93DF93CDB722
:10048000DEB7CA57D1090FB6F894DEBF0FBECDBF95
:1004900081E290E0FC01108282E290E02FEFFC010B
:1004A000208384E290E02FE4FC01208385E290E049
:1004B000FC01108282E290E020E230E0F90120812C
:1004C000FC01208381E490E0A0E0B0E0BC01CD011C
:1004D0000E9440010E9490000E940E0281E08983E8
:1004E00080E6E6E1F1E0DE01139601900D928A9537
:1004F000E1F7CE018D599F4F2981FC012083CE0168
:100500008D599F4F29E0FC012183CE018D599F4FCA
:100510002981FC012283CE018D599F4F29E0FC01E6
:100520002383CE018D599F4F2981FC012483CE0165
:100530008D599F4F24E0FC012583CE018D599F4F9B
:100540002981FC012683CE018D599F4F24E0FC01B7
:100550002783CE018D599F4F2981FC012087CE0131
:100560008D599F4F29E0FC012187CE018D599F4F66
:100570002981FC012287CE018D599F4F24E0FC0187
:100580002387CE018D599F4F2981FC012487CE01FD
:100590008D599F4F24E0FC012587CE018D599F4F37
:1005A0002981FC012687CE018D599F4F29E0FC014E
:1005B0002787CE018D599F4F2981FC01208BCE01C9
:1005C0008D599F4F24E0FC01218BCE018D599F4F07
:1005D0002981FC01228BCE018D599F4F24E0FC0123
:1005E000238BCE018D599F4F2981FC01248BCE0195
:1005F0008D599F4F24E0FC01258BCE018D599F4FD3
:100600002981FC01268BCE018D599F4F24E0FC01EE
:10061000278B88E18A8380917C01882F90E0880F66
:10062000991F880F991F9E012F5F3F4F820F931FC5
:100630000296FC0180819181A281B381BC01CD0130
:100640000E946E0180917C01882F90E09E012D59BF
:100650003F4F820F931FFC01908180917B0189178E
:1006600068F010927B0180917C018F5F80937C0108
:1006700080917C01883110F010927C0180917B0187
:100680008F5F80937B0185E290E040917C012DECAF
:10069000429F212D1124322F36953695232F220F7C
:1006A000220F230F342F321B432F50E021E030E084
:1006B00002C0220F331F4A95E2F7FC01208300009D
:1006C000809176018823E1F310927601A4CF0E94F5
:1006D000140408F481E008950E9480030C944F04F0
:1006E0000E94480458F00E94410440F029F45F3F02
:1006F00029F00C94380451110C9483040C943E049A
:100700000E94600468F39923B1F3552391F3951B7C
:10071000550BBB27AA2762177307840738F09F5F22
:100720005F4F220F331F441FAA1FA9F335D00E2E8F
:100730003AF0E0E832D091505040E695001CCAF7FC
:100740002BD0FE2F29D0660F771F881FBB1F2617BF
:1007500037074807AB07B0E809F0BB0B802DBF0196
:10076000FF2793585F4F3AF09E3F510578F00C9465
:1007700038040C9483045F3FE4F3983ED4F38695E9
:1007800077956795B795F7959F5FC9F7880F911D86
:100790009695879597F90895E1E0660F771F881F72
:1007A000BB1F621773078407BA0720F0621B730B25
:1007B000840BBA0BEE1F88F7E09508950E94E503BD
:1007C0006894B1110C94830408950E94680488F021
:1007D0009F5798F0B92F9927B751B0F0E1F0660F05
:1007E000771F881F991F1AF0BA95C9F714C0B13046
:1007F00091F00E948204B1E008950C948204672F66
:10080000782F8827B85F39F0B93FCCF38695779574
:100810006795B395D9F73EF490958095709561955D
:100820007F4F8F4F9F4F0895990F0008550FAA0BC8
:10083000E0E8FEEF16161706E807F907C0F01216F3
:100840001306E407F50798F0621B730B840B950BF6
:1008500039F40A2661F0232B242B252B21F408954B
:100860000A2609F4A140A6958FEF811D811D0895E8
:1008700097F99F6780E870E060E008959FEF80EC53
:10088000089500240A9416161706180609060895F6
:1008900000240A9412161306140605060895092E5C
:1008A0000394000C11F4882352F0BB0F40F4BF2BCB
:1008B00011F460FF04C06F5F7F4F8F4F9F4F08950B
:1008C00057FD9058440F551F59F05F3F71F0479501
:1008D000880F97FB991F61F09F3F79F087950895E6
:1008E000121613061406551FF2CF4695F1DF08C005
:1008F000161617061806991FF1CF86957105610522
:1009000008940895E894BB2766277727CB0197F9C9
:1009100008950E94140408F48FEF08950E94A10422
:100920000C944F040E94410438F00E94480420F0C7
:10093000952311F00C9438040C943E0411240C946B
:1009400083040E94600470F3959FC1F3950F50E0FB
:10095000551F629FF001729FBB27F00DB11D639F71
:10096000AA27F00DB11DAA1F649F6627B00DA11D17
:10097000661F829F2227B00DA11D621F739FB00DBD
:10098000A11D621F839FA00D611D221F749F33272D
:10099000A00D611D231F849F600D211D822F762FC6
:1009A0006A2F11249F5750409AF0F1F088234AF0A3
:1009B000EE0FFF1FBB1F661F771F881F915050400F
:1009C000A9F79E3F510580F00C9438040C948304E1
:1009D0005F3FE4F3983ED4F3869577956795B79596
:1009E000F795E7959F5FC1F7FE2B880F911D9695B0
:0A09F000879597F90895F894FFCF5A
:1009FA000000000200000000670000000000010083
:100A0A0000004100000000000000A4D0A443000040
:100A1A000000A4F0F64300000000A4F0F643000032
:100A2A0000000000DC4300000000A4F0F6430000D0
:100A3A0000000000DC43000000000000C443000086
:100A4A0000000000DC43000000000000DC4300005E
:100A5A0000000000C44300000000A4D0A44300002A
:060A6A0000000000C4437F
:00000001FF
