:100000000C9446000C9465000C9465000C946500FB
:100010000C9465000C9465000C9465000C946500CC
:100020000C9465000C9465000C9465000C946500BC
:100030000C9465000C94DE000C9465000C94650033
:100040000C9465000C9465000C9465000C9465009C
:100050000C9465000C9465000C9465000C9465008C
:100060000C9465000C9465000C9465000C9465007C
:100070000C9465000C9465000C9465000C9465006C
:100080000C9465000C9465000C94650011241FBE4F
:10009000CFEFD0E4DEBFCDBF11E0A0E0B1E0ECEBEC
:1000A000FAE000E00BBF02C007900D92AA39B10739
:1000B000D9F721E0AAE9B1E001C01D92A83AB20740
:1000C000E1F70E9484030C945C050C940000CF932C
:1000D000DF9300D01F92CDB7DEB789837B836A831D
:1000E00089818A3031F48A819B81BC018DE00E9434
:1000F000670080EC90E0FC018081882F90E08072A6
:100100009927892BB1F386EC90E02981FC012083AB
:1001100080E090E00F900F900F90DF91CF910895C5
:10012000CF93DF93CDB7DEB781E890E02BE0FC0101
:10013000208388E890E02DE730E0FC0131832083C4
:100140008FE690E022E0FC01208384E890E0FC014F
:100150001182108280910E0190910F01A0911001E7
:10016000B091110180939B0190939C01A0939D01FC
:10017000B0939E018FE590E02FE530E0F9012081FA
:100180002068FC0120830000DF91CF910895CF9378
:10019000DF93CDB7DEB781E890E0FC01108200006C
:1001A000DF91CF910895CF93DF93CDB7DEB781E094
:1001B00080939A010000DF91CF9108951F920F92D2
:1001C00000905F000F92112400905B000F922F931C
:1001D0003F934F935F936F937F938F939F93AF93CF
:1001E000BF93EF93FF93CF93DF93CDB7DEB78091AB
:1001F0009B0190919C01A0919D01B0919E0101975E
:10020000A109B10980939B0190939C01A0939D014A
:10021000B0939E0180919B0190919C01A0919D01C2
:10022000B0919E01892B8A2B8B2B91F40E94D300D5
:1002300080910E0190910F01A0911001B0911101D8
:1002400080939B0190939C01A0939D01B0939E018C
:100250000000DF91CF91FF91EF91BF91AF919F91FE
:100260008F917F916F915F914F913F912F910F905F
:1002700000925B000F9000925F000F901F90189506
:10028000CF93DF9300D000D0CDB7DEB769837A83F8
:100290008B839C8389819A81AB81BC8180930E0181
:1002A00090930F01A0931001B093110180910E0162
:1002B00090910F01A0911001B091110180939B01C9
:1002C00090939C01A0939D01B0939E0100000F901C
:1002D0000F900F900F90DF91CF9108950F931F9380
:1002E000CF93DF9300D000D0CDB7DEB769837A8398
:1002F0008B839C838091A2019091A301A091A40182
:10030000B091A5019C01AD0169817A818B819C81AD
:100310000E94C803882309F477C020E030E0A901D7
:1003200069817A818B819C810E94C803882351F462
:1003300081E990E021E930E0F90120812870FC0199
:10034000208309C081E990E021E930E0F9012081B2
:100350002360FC01208328E539E344E75FE36981FA
:100360007A818B819C810E94C803882344F488E9A8
:1003700090E02FEF3FEFFC013183208334C020E079
:1003800034E244EF56E469817A818B819C810E943A
:10039000EA04181634F488E990E0FC011182108216
:1003A00022C008E910E020E030E040E053E4698139
:1003B0007A818B819C810E94EF04DC01CB019C013E
:1003C000AD0160E074E284EF9AE40E94CD03DC01A9
:1003D000CB01BC01CD010E943F04DC01CB010197A0
:1003E000F8019183808384E990E0FC0111821082FE
:1003F00089819A81AB81BC818093A2019093A301F2
:10040000A093A401B093A50100000F900F900F904E
:100410000F90DF91CF911F910F910895CF93DF93AC
:10042000CDB7DEB780E990E020E4FC01208381E9CC
:1004300090E02BE0FC01208360E070E0CB010E94A3
:100440006E010000DF91CF910895CF93DF93CDB778
:10045000DEB780E990E0FC01108281E990E0FC01C8
:1004600010820000DF91CF910895CF93DF93CDB735
:10047000DEB78091A6019091A7018230910511F11C
:100480008330910530F4009759F0019709F491C039
:10049000E6C08330910589F1049709F4C9C0DFC033
:1004A00082E090E09093A7018093A6011092A101B1
:1004B0008091A1018093A00160E070E0CB010E94D7
:1004C0006E01CDC080E290E0FC018081882F90E039
:1004D00081709927892B51F083E090E09093A701D8
:1004E0008093A60181E08093A001B9C082E090E0F2
:1004F0009093A7018093A601B2C080E290E0FC0136
:100500008081882F90E081709927892B61F09091EC
:10051000A1018AE1981738F483E090E09093A70155
:100520008093A60145C080E290E0FC018081882F85
:1005300090E081709927892BA9F09091A1018AE11F
:10054000981780F084E090E09093A7018093A60133
:100550001092A0011092A10160E070E0CB010E9416
:100560006E0126C080E290E0FC018081882F90E03F
:1005700081709927892BA9F49091A1018AE198179C
:1005800080F082E090E09093A7018093A601109202
:10059000A0011092A10160E070E0CB010E946E0109
:1005A00007C081E090E09093A7018093A60157C017
:1005B00056C080E290E0FC018081882F90E081703D
:1005C0009927892B61F49091A1018AE1981738F459
:1005D00081E090E09093A7018093A60128C080E27B
:1005E00090E0FC018081882F90E081709927892B11
:1005F000B9F09091A1018AE1981790F484E090E01D
:100600009093A7018093A6011092A1018091A1016E
:100610008093A00160E070E0CB010E946E0107C0F2
:1006200082E090E09093A7018093A60118C017C0C4
:1006300080E290E0FC018081882F90E08170992712
:10064000892B39F084E090E09093A7018093A60174
:1006500006C082E090E09093A7018093A60180916C
:10066000A6019091A7018230910531F08230910569
:1006700078F0059770F40CC01092A1018091A1014F
:100680008093A00160E070E0CB010E946E0101C088
:1006900000000000DF91CF910895CF93DF93CDB795
:1006A000DEB78091A001882359F18091A101882FA4
:1006B00090E0880F991F880F991F8E5E9E4FFC0156
:1006C00080819181A281B381BC01CD010E946E0124
:1006D0008091A101882F90E086589E4FFC01908167
:1006E00080919F01891738F010929F018091A1019C
:1006F0008F5F8093A10180919F018F5F80939F0105
:100700000000DF91CF910895CF93DF93CDB7DEB78F
:1007100081E290E0FC01108282E290E02FEFFC0188
:10072000208384E290E020E4FC01208385E290E0D5
:10073000FC01108282E290E020E230E0F9012081A9
:10074000FC0120831092A7011092A6018CE390E097
:10075000A0E0B0E0BC01CD010E9440010E949000E9
:100760000E940E021092A0018091A0018093A1012D
:100770008091A10180939F010E9435020E944D0348
:10078000000080919A018823E1F310929A01F4CF3E
:100790000E94750408F481E008950E94E1030C941E
:1007A000B0040E94A90458F00E94A20440F029F469
:1007B0005F3F29F00C94990451110C94E4040C94BB
:1007C0009F040E94C10468F39923B1F3552391F368
:1007D000951B550BBB27AA2762177307840738F0B0
:1007E0009F5F5F4F220F331F441FAA1FA9F335D00D
:1007F0000E2E3AF0E0E832D091505040E695001CC1
:10080000CAF72BD0FE2F29D0660F771F881FBB1F7A
:10081000261737074807AB07B0E809F0BB0B802D58
:10082000BF01FF2793585F4F3AF09E3F510578F084
:100830000C9499040C94E4045F3FE4F3983ED4F3E1
:10084000869577956795B795F7959F5FC9F7880F58
:10085000911D9695879597F90895E1E0660F771FAA
:10086000881FBB1F621773078407BA0720F0621B3B
:10087000730B840BBA0BEE1F88F7E09508950E9466
:1008800046046894B1110C94E40408950E94C904CC
:1008900088F09F5798F0B92F9927B751B0F0E1F041
:1008A000660F771F881F991F1AF0BA95C9F714C0F1
:1008B000B13091F00E94E304B1E008950C94E30498
:1008C000672F782F8827B85F39F0B93FCCF386952A
:1008D00077956795B395D9F73EF490958095709587
:1008E00061957F4F8F4F9F4F0895990F0008550FC7
:1008F000AA0BE0E8FEEF16161706E807F907C0F0A6
:1009000012161306E407F50798F0621B730B840BAD
:10091000950B39F40A2661F0232B242B252B21F487
:1009200008950A2609F4A140A6958FEF811D811D27
:10093000089597F99F6780E870E060E008959FEF61
:1009400080EC089500240A94161617061806090666
:10095000089500240A941216130614060506089535
:10096000092E0394000C11F4882352F0BB0F40F4BD
:10097000BF2B11F460FF04C06F5F7F4F8F4F9F4FFD
:10098000089557FD9058440F551F59F05F3F71F07F
:100990004795880F97FB991F61F09F3F79F08795E6
:1009A0000895121613061406551FF2CF4695F1DF6F
:1009B00008C0161617061806991FF1CF86957105FF
:1009C000610508940895E894BB2766277727CB0133
:1009D00097F908950E94750408F48FEF08950E9416
:1009E00002050C94B0040E94A20438F00E94A904ED
:1009F00020F0952311F00C9499040C949F04112479
:100A00000C94E4040E94C10470F3959FC1F3950F08
:100A100050E0551F629FF001729FBB27F00DB11D82
:100A2000639FAA27F00DB11DAA1F649F6627B00D12
:100A3000A11D661F829F2227B00DA11D621F739FFB
:100A4000B00DA11D621F839FA00D611D221F749F09
:100A50003327A00D611D231F849F600D211D822F50
:100A6000762F6A2F11249F5750409AF0F1F0882377
:100A70004AF0EE0FFF1FBB1F661F771F881F9150A4
:100A80005040A9F79E3F510580F00C9499040C94B6
:100A9000E4045F3FE4F3983ED4F386957795679539
:100AA000B795F795E7959F5FC1F7FE2B880F911DCE
:0C0AB0009695879597F90895F894FFCF6C
:100ABC0000000002000000006700000000000100C0
:100ACC00000000000000A4D0A44300000000A4F02B
:100ADC00F64300000000A4F0F64300000000000004
:100AEC00DC4300000000A4F0F6430000000000000E
:100AFC00DC43000000000000C443000000000000C4
:100B0C00DC43000000000000DC430000000000009B
:100B1C00C44300000000A4D0A44300000000000067
:100B2C00C44300000000A4D0A4430109010901043E
:100B3C000104010901040104010901040104010477
:0A0B4C00010401093C0000001A003A
:00000001FF
