:100000000C9446000C9465000C9465000C946500FB
:100010000C9465000C9465000C9465000C946500CC
:100020000C9465000C9465000C9465000C946500BC
:100030000C9465000C9465000C9465000C946500AC
:100040000C9465000C9465000C9465000C9465009C
:100050000C9465000C9465000C9465000C9465008C
:100060000C9465000C9465000C9465000C9465007C
:100070000C9465000C9465000C9465000C9465006C
:100080000C9465000C9465000C94650011241FBE4F
:10009000CFEFD0E4DEBFCDBF11E0A0E0B1E0E8E0FB
:1000A000F8E000E00BBF02C007900D92AE35B1073B
:1000B000D9F721E0AEE5B1E001C01D92AD36B2073F
:1000C000E1F70E9444020C9402040C940000CF93C8
:1000D000DF9300D01F92CDB7DEB789837B836A831D
:1000E00089818A3031F48A819B81BC018DE00E9434
:1000F000670080EC90E0FC018081882F90E08072A6
:100100009927892BB1F386EC90E02981FC012083AB
:1001100080E090E00F900F900F90DF91CF910895C5
:10012000CF93DF93CDB7DEB781E890E02BE0FC0101
:10013000208388E890E02DE730E0FC0131832083C4
:100140008FE690E022E0FC01208384E890E0FC014F
:100150001182108280910E0190910F01A0911001E7
:10016000B091110180935F0190936001A0936101B0
:10017000B09362018FE590E02FE530E0F901208136
:100180002068FC0120830000DF91CF910895CF9378
:10019000DF93CDB7DEB781E890E0FC01108200006C
:1001A000DF91CF910895CF93DF93CDB7DEB781E094
:1001B00080935E01809163018F5F809363010000F3
:1001C000DF91CF910895CF93DF9300D0CDB7DEB705
:1001D0009A83898380915F0190916001A091610170
:1001E000B09162010197A109B10980935F019093D9
:1001F0006001A0936101B093620180915F019091D1
:100200006001A0916101B0916201892B8A2B8B2B37
:1002100091F40E94D30080910E0190910F01A09162
:100220001001B091110180935F0190936001A09340
:100230006101B093620100000F900F90DF91CF91A8
:100240000895CF93DF9300D000D0CDB7DEB7698398
:100250007A838B839C8389819A81AB81BC818093D3
:100260000E0190930F01A0931001B09311018091A2
:100270000E0190910F01A0911001B0911101809396
:100280005F0190936001A0936101B093620100004F
:100290000F900F900F900F90DF91CF9108950F93D3
:1002A0001F93CF93DF9300D000D0CDB7DEB7698323
:1002B0007A838B839C838091650190916601A091E4
:1002C0006701B09168019C01AD0169817A818B81E0
:1002D0009C810E946E02882309F477C020E030E000
:1002E000A90169817A818B819C810E946E02882399
:1002F00051F481E990E021E930E0F9012081287092
:10030000FC01208309C081E990E021E930E0F90196
:1003100020812360FC01208328E539E344E75FE383
:1003200069817A818B819C810E946E02882344F4CA
:1003300088E990E02FEF3FEFFC013183208334C048
:1003400020E034E244EF56E469817A818B819C811C
:100350000E949003181634F488E990E0FC011182A1
:10036000108222C008E910E020E030E040E053E4D1
:1003700069817A818B819C810E949503DC01CB018C
:100380009C01AD0160E074E284EF9AE40E94730284
:10039000DC01CB01BC01CD010E94E502DC01CB01F7
:1003A0000197F8019183808384E990E0FC01118238
:1003B000108289819A81AB81BC8180936501909381
:1003C0006601A0936701B093680100000F900F9041
:1003D0000F900F90DF91CF911F910F910895CF93C0
:1003E000DF93CDB7DEB780E990E020E4FC01208305
:1003F00081E990E02BE0FC01208360E070E0CB011C
:100400000E944F010000DF91CF910895CF93DF93B9
:10041000CDB7DEB780E990E0FC01108281E990E081
:10042000FC0110820000DF91CF910895CF93DF93FC
:10043000CDB7DEB780916401882F90E0880F991FB7
:10044000880F991F865C9E4FFC0180819181A2815B
:10045000B381BC01CD010E944F0180916401882FBE
:1004600090E08E5C9E4FFC01908180916301891722
:1004700038F010926301809164018F5F8093640172
:100480000000DF91CF910895CF93DF93CDB7DEB712
:1004900081E290E0FC01108282E290E02FEFFC010B
:1004A000208384E290E020E4FC01208385E290E058
:1004B000FC0110828AEF90E0A0E0B0E0BC01CD0129
:1004C0000E9421010E9490000E94EF010000809193
:1004D0005E018823E1F310925E01F8CF0E941B03B6
:1004E00008F481E008950E9487020C9456030E944C
:1004F0004F0358F00E94480340F029F45F3F29F071
:100500000C943F0351110C948A030C9445030E94F0
:10051000670368F39923B1F3552391F3951B550BAA
:10052000BB27AA2762177307840738F09F5F5F4FC6
:10053000220F331F441FAA1FA9F335D00E2E3AF005
:10054000E0E832D091505040E695001CCAF72BD01D
:10055000FE2F29D0660F771F881FBB1F261737076E
:100560004807AB07B0E809F0BB0B802DBF01FF27A0
:1005700093585F4F3AF09E3F510578F00C943F033B
:100580000C948A035F3FE4F3983ED4F38695779505
:100590006795B795F7959F5FC9F7880F911D969559
:1005A000879597F90895E1E0660F771F881FBB1FB5
:1005B000621773078407BA0720F0621B730B840B62
:1005C000BA0BEE1F88F7E09508950E94EC0268943C
:1005D000B1110C948A0308950E946F0388F09F570D
:1005E00098F0B92F9927B751B0F0E1F0660F771F57
:1005F000881F991F1AF0BA95C9F714C0B13091F04D
:100600000E948903B1E008950C948903672F782F25
:100610008827B85F39F0B93FCCF386957795679511
:10062000B395D9F73EF490958095709561957F4F7D
:100630008F4F9F4F0895990F0008550FAA0BE0E8C0
:10064000FEEF16161706E807F907C0F01216130694
:10065000E407F50798F0621B730B840B950B39F4D4
:100660000A2661F0232B242B252B21F408950A263A
:1006700009F4A140A6958FEF811D811D089597F97A
:100680009F6780E870E060E008959FEF80EC089538
:1006900000240A9416161706180609060895002461
:1006A0000A9412161306140605060895092E0394DB
:1006B000000C11F4882352F0BB0F40F4BF2B11F44F
:1006C00060FF04C06F5F7F4F8F4F9F4F089557FDAE
:1006D0009058440F551F59F05F3F71F04795880FB0
:1006E00097FB991F61F09F3F79F087950895121647
:1006F00013061406551FF2CF4695F1DF08C01616F3
:1007000017061806991FF1CF8695710561050894A3
:100710000895E894BB2766277727CB0197F90895BA
:100720000E941B0308F48FEF08950E94A8030C9405
:1007300056030E94480338F00E944F0320F095238F
:1007400011F00C943F030C94450311240C948A037C
:100750000E94670370F3959FC1F3950F50E0551FFA
:10076000629FF001729FBB27F00DB11D639FAA2706
:10077000F00DB11DAA1F649F6627B00DA11D661F55
:10078000829F2227B00DA11D621F739FB00DA11D76
:10079000621F839FA00D611D221F749F3327A00D30
:1007A000611D231F849F600D211D822F762F6A2FCC
:1007B00011249F5750409AF0F1F088234AF0EE0F31
:1007C000FF1FBB1F661F771F881F91505040A9F75E
:1007D0009E3F510580F00C943F030C948A035F3FC9
:1007E000E4F3983ED4F3869577956795B795F7959A
:1007F000E7959F5FC1F7FE2B880F911D9695879512
:0808000097F90895F894FFCF69
:100808000000000200000000670000000000010076
:100818000000A4D082437BD49243A4D0A443719D0A
:10082800AE430000C4430000DC43A4F0F64300D00C
:100838000244040301060204040600D00244A4F0A2
:10084800F6430000DC430000C443719DAE43A4D0CE
:0E085800A4437BD49243A4D08243FA00000054
:00000001FF
